:020000040800F2
:1000000000060020E1010008E3010008E301000808
:10001000E3010008E3010008E3010008E301000830
:10002000E3010008E3010008E3010008212F0008B4
:10003000E3010008E3010008E3010008E301000810
:10004000E3010008E3010008E3010008E301000800
:10005000E3010008E3010008C9310008F13100089C
:10006000193200084132000869320008E301000833
:10007000E3010008E3010008E3010008E3010008D0
:10008000E3010008E3010008E3010008E3010008C0
:10009000E3010008E3010008E301000891320008D1
:1000A000E3010008E3010008E3010008E3010008A0
:1000B00065330008E3010008E3010008E3010008DC
:1000C000E3010008E3010008E3010008E301000880
:1000D000E3010008E3010008E3010008E301000870
:1000E000F5320008E3010008E3010008E30100081D
:1000F000E3010008E3010008E3010008E301000850
:10010000E3010008E3010008E3010008E30100083F
:10011000E3010008E3010008E3010008E30100082F
:10012000E3010008E3010008E3010008E30100081F
:10013000E3010008E3010008E3010008E30100080F
:10014000E3010008E3010008E3010008ED260008D0
:10015000E3010008E3010008E3010008E3010008EF
:10016000E3010008E3010008E3010008E3010008DF
:10017000E3010008E3010008E3010008E3010008CF
:10018000E3010008E3010008E3010008E3010008BF
:10019000E3010008E3010008E3010008E3010008AF
:1001A000E3010008E3010008E3010008E30100089F
:1001B000E3010008E3010008E3010008E30100088F
:1001C000E3010008E3010008E3010008E30100087F
:1001D000E3010008E3010008E3010008E30100086F
:1001E00002E000F000F8FEE772B6374880F30888B6
:1001F000364880F3098836483649086040F20000E6
:10020000CCF200004EF63471CEF200010860BFF36C
:100210004F8FBFF36F8F40F20000C0F2F0004EF638
:100220008851CEF200010860BFF34F8FBFF36F8F8C
:100230004FF00000E1EE100A4EF63C71CEF20001E4
:100240000860062080F31488BFF36F8F01F026FF4B
:1002500002F006FE4FF055301F491B4A91423CBF49
:1002600041F8040BFAE71D49184A91423CBF41F896
:10027000040BFAE71A491B4A1B4B9A423EBF51F83E
:10028000040B42F8040BF8E700201849184A914281
:100290003CBF41F8040BFAE701F004FF02F032FE24
:1002A000144C154DAC4203DA54F8041B8847F9E7A7
:1002B00000F042F8114C124DAC4203DA54F8041B22
:1002C0008847F9E701F0ECBE00060020002200207C
:1002D0000000000808ED00E00000002000060020FB
:1002E0002837000800220020402200204022002061
:1002F000682E0020E0010008E0010008E00100088D
:10030000E00100082DE9F04F2DED108AC1F80CD066
:10031000C3689D46BDEC108ABDE8F08F002383F3CF
:1003200011882846A047002001F07EFAFEE701F080
:100330000DFA00DFFEE7000038B500F0B1FB01F078
:100340007DFE054601F0A0FE0446A8B90E4B9D4275
:1003500015D001339D4214D041F28835002001F0C0
:1003600077FE0CB100F078F800F00EFD284600F0A2
:10037000C3F800F071F8F9E700250124EEE705461F
:10038000ECE70546F9E700BF010007B008B500F04B
:100390005BFBA0F120035842584108BD07B541F26C
:1003A0001203022101A8ADF8043000F069FB03B08C
:1003B0005DF804FB38B5302383F3118817480368D0
:1003C0000BB101F0FDFA164A144800234FF47A717C
:1003D00001F0ECFA002383F31188124C236813B167
:1003E0002368013B2360636813B16368013B63606A
:1003F0000D4D2B7833B963687BB9022000F02AFCDD
:10040000322363602B78032B07D163682BB902205A
:1004100000F020FC4FF47A73636038BD5023002055
:10042000B5030008442300204C230020084B18701B
:1004300003280CD8DFE800F008050208022000F0CD
:10044000F7BB022000F0E2BB024B00225A6070476B
:100450004C23002044230020234B244A10B51C4683
:10046000196801313FD004339342F9D16268A24246
:1004700039D31F4B9B6803F1006303F540439A4255
:1004800031D2002000F026FB0220FFF7CFFF194BEE
:100490001A6C00221A64196E1A66196E596C5A6425
:1004A000596E5A665A6E5A6942F080025A615A6908
:1004B00022F080025A615A691A6942F000521A61A8
:1004C0001A6922F000521A611B6972B64FF0E023DC
:1004D0003021C3F8084DD4E9003281F311889D46DC
:1004E00083F30888104710BD00C0000820C0000832
:1004F00000220020003802402DE9F04F95B0DFF8CF
:10050000C0B201902022FF210CA8DBF8086000F0A7
:10051000E5FBA64A1378A3B9A54801210360117031
:10052000302383F3118803680BB101F049FAA14A23
:100530009F4800234FF47A7101F038FA002383F3C7
:100540001188019B13B19C4B019A1A609B4A019D33
:100550001378032B1EBF00231370974A4FF0000936
:1005600018BF5360CA464C46C846012000F060FBE5
:1005700025B1914B1B68002B00F00D82002000F08C
:1005800063FA0590059B002BF2DB012000F03EFB97
:10059000059B213B162BE8D801A252F823F000BF9F
:1005A000FD0500081B060008A30600086B050008EF
:1005B0006B0500086B0500082B07000807090008F9
:1005C0002508000883080008AB080008D1080008C7
:1005D0006B050008E30800086B05000855090008D2
:1005E000950600086B0500089D0900086D070008C6
:1005F000950600086B050008830800080220FFF735
:10060000C5FE002800F0B28000F0B4FB0AF00B0336
:100610000B2B4FF0010471D102E14FF47A7000F01E
:1006200013FA071EC0F2A2800220FFF7AFFE0028D7
:1006300000F09C80013F052F00F2D881DFE807F031
:10064000030A0D10132E05230793042107A800F0B9
:1006500017FA17E05A480421F9E75A480421F6E747
:1006600059480421F3E74FF01C08404600F034FAE3
:1006700008F104080790042107A800F001FAB8F176
:100680002C0FF2D10123BB404AEA03035FFA83FA3D
:100690004FF0000800F06EFB84B3B7E74B4804212D
:1006A000D5E7002C62D00AF00B030B2B5DD10220A2
:1006B000FFF76CFE0446002857D0012000F00AFA2C
:1006C0000220FFF7B3FE00271FFA87F9484600F023
:1006D00011FA0546B0B9394B012202201A7000F018
:1006E00095FA2E46DBF80830B34217D8334B002674
:1006F0001E70314B5E6000F03DFBA146FFF74EFEE1
:10070000234671E10021484600F004FA013705460E
:100710000028D9D1A14641F212132EE0304600F054
:10072000DBF90130F6D10436DCE7FCB10AF00B034B
:100730000B2B1AD10220FFF779FE322000F084F94A
:10074000071E12DB17F003030FD1DBF80810BA19EC
:100750008A420AD8B7F5807F07D81D4A9F4213DC2A
:10076000C820FFF713FE0446A0BB0124019BB9F18A
:10077000000F08BF1D4641F21233022107A8ADF851
:100780001C3000F07DF9BBE74FF47A70CDE90232FE
:1007900000F05AF9059005990029E7DB039A029BBE
:1007A000059902F8011B0133D8E700BF4023002060
:1007B00050230020B5030008442300204C230020D0
:1007C0000022002004220020082200200C22002009
:1007D000402200201F2E11D8C6F12002BA420CABD5
:1007E00026F0030028BF3A4682490292184400F0DE
:1007F00055FA029A7F48FF2100F070FABB10C7F348
:1008000087027C490293304600F070FA07460028C0
:1008100081D0029B042213FB026600F0ABFA3C4637
:1008200000256BE70220FFF7B1FD00289ED000F005
:100830009DF900289AD000273B4612E01F2F1AD8B6
:100840000C9A013217D027F0030250326A4452F852
:10085000200C07900422184607A900F0BFFA0437BD
:100860000346DBF80820BA42E8D80793042107A81A
:1008700000F006F90EE73846029300F02DF9029BCE
:10088000E7E70023642106A8069300F0F1F80028AA
:100890007FF46CAF0220FFF779FD00283FF466AFCC
:1008A000069800F04BF90790E0E70023642106A8C2
:1008B000069300F0DDF800287FF458AF0220FFF720
:1008C00065FD00283FF452AF069800F047F9EAE7CB
:1008D0000220FFF75BFD00283FF448AF00F056F917
:1008E000E1E70220FFF752FD00283FF43FAF07A9E0
:1008F000142000F051F904210746069006A800F0E4
:10090000BFF83946B3E7322000F09EF8071EFFF625
:100910002DAFBB077FF42AAFDBF8082007EB0803F5
:1009200093423FF623AF0220FFF730FD00283FF44B
:100930001DAF27F003074744B8453FF4ABAE404630
:1009400000F0CAF80421079007A800F099F808F110
:100950000408F1E74FF47A70FFF718FD00283FF420
:1009600005AF00F003F900283FF4D5AE0C9B01332E
:100970000CD008220CA9002000F0B8F900283FF4A0
:10098000CAAE2022FF210CA800F0A8F9FFF706FD4F
:10099000194800F04FFF15B0BDE8F08F002C3FF470
:1009A000E5AE0AF00B030B2B7FF4E0AE00236421CD
:1009B00007A8079300F05CF8074600287FF4D6AE3E
:1009C0000220FFF7E3FC029000283FF4CFAEFFF7D0
:1009D000E5FC41F2883000F02DFF079800F0FCF9AB
:1009E00000F0C8F9029B3D461C46BEE54FF00008EA
:1009F000BCE600BF40220020A086010070B50F4B6E
:100A00001B780133DBB2012B05460C4610D80C488D
:100A100001684FF47A730E6AA2FB0332294622461C
:100A2000B047844204D1074B00221A70012070BDE8
:100A30004FF4FA7000F0FEFE0020F8E710220020CC
:100A4000A02800209823002007B50023024601219A
:100A50000DF107008DF80730FFF7D0FF20B19DF8AA
:100A6000070003B05DF804FB4FF0FF30F9E700002A
:100A700008B50A460421FFF7C1FF013808BD000090
:100A800030B4054604480368DC69044B0A46A446B2
:100A9000294630BC604700BFA0280020A086010086
:100AA00070B501F0D7F9094E094C30800025206857
:100AB0003388834208D901F0C7F92368054401331C
:100AC000B5F5404F2360F2D370BD00BF90230020E6
:100AD0009423002001F068BA00F1006000F5404066
:100AE0000068704700F10060920000F5404001F09E
:100AF000F7B90000054B1A68054B1B889B1A834207
:100B000002D9104401F0A0B90020704794230020BE
:100B10009023002038B5084D044629B128682044A8
:100B2000BDE8384001F0B0B92868204401F094F9DC
:100B30000028F3D038BD00BF94230020034610F0F6
:100B4000030009D1B3F5047F07D203F10053A3F5E5
:100B50001043D3F8000870470020704700F10050A0
:100B6000A0F51040D0F8100A70470000064991F82F
:100B7000243033B10023086A81F824300822FFF7BB
:100B8000B1BF0120704700BF68230020014B1868E7
:100B9000704700BF002004E070B5194B194A1D686A
:100BA000431EC5F30B040B442D0C0520013808D15E
:100BB0009942084610D3144A0624013C15D1401A24
:100BC00070BD1688A6420ED152680846013A984276
:100BD000F1D212F9014F1CB92C2200F8012BEAE7DF
:100BE00000F8014BF3E70832E0E71688AE4204D183
:100BF00098423CBF967800F8016B0432DDE700BFF5
:100C0000002004E0A034000808340008022804D1C1
:100C1000054B4FF000729A6170470128FCD1034BDD
:100C20004FF00042F7E700BF00000240000802401A
:100C3000022804D1054B4FF400729A6170470128D5
:100C4000FCD1034B4FF40042F7E700BF0000024025
:100C500000080240022805D1064A536983F4007354
:100C6000536170470128FCD1034A536983F4004360
:100C7000F6E700BF000002400008024070B50446DD
:100C80004FF47A7604B970BD412C254628BF412522
:100C900006FB05F000F0CEFD641BF3E710B5002362
:100CA000934200D110BDCC5CC4540133F8E700007E
:100CB00010B5013810F9013F3BB191F900409C4259
:100CC00003D11AB10131013AF4E71AB191F90020C8
:100CD000981A10BD1046FCE7FFF7FEBF024403461A
:100CE000934200D1704703F8011BF9E72DE9F04763
:100CF0001F4D144695F82420074689469AB32B6A5F
:100D000003EB820383422ED0FFF730FF58BB002055
:100D1000BDE8F08795F824302BB915482F622022C2
:100D2000FF21FFF7DBFF95F82400C0F10808A0457C
:100D300028BFA04649464FEA880205EB8000FFF72E
:100D4000ADFF95F824305FFA88F6A41B1E44F6B276
:100D50000FFA88FA082E07EB8A0709EB8809E4B234
:100D600085F82460D0D0002CD4D10120D0E700BF7A
:100D700068230020024B1A78024B1A70704700BF9C
:100D8000982300201022002010B5104C104800F0CD
:100D9000B5F821460E4800F0DDF82468626DD2F8FF
:100DA000043843F00203C2F804384FF47A70FFF7B6
:100DB00065FF0849204600F0D5F9626DD2F8043885
:100DC00023F00203C2F8043810BD00BF003500084C
:100DD000A0280020083500087047000030B5094DF4
:100DE0000A44914200D130BD11F8013B584008231C
:100DF00040F30004013B2C4013F0FF0384EA500051
:100E0000F6D1EEE72083B8ED026843680A4302603A
:100E100003B118477047000013B5446BD4F89434FD
:100E20001A681178042915D1217C022912D1197967
:100E3000128901238B4013420CD101A904F14C000B
:100E400001F0CCFED4F89444019B2179024620683D
:100E500000F0D2F902B010BD143001F055BE000010
:100E60004FF0FF33143001F04FBE00004C3001F062
:100E700021BF00004FF0FF334C3001F01BBF0000DA
:100E8000143001F023BE00004FF0FF31143001F0A8
:100E90001DBE00004C3001F0EDBE00004FF0FF32EF
:100EA0004C3001F0E7BE00000020704710B5D0F8CC
:100EB00094341A6811780429044617D1017C022958
:100EC00014D15979528901238B4013420ED1143029
:100ED00001F0B6FD024648B1D4F894044FF4807393
:100EE00041790068BDE8104000F074B910BD000001
:100EF000406BFFF7DBBF0000704700007FB5124B6F
:100F0000036000234360C0E90233012502260F4B32
:100F1000057404460290019300F18402294600966C
:100F20004FF48073143001F067FD094B0294CDE952
:100F3000006304F523724FF48073294604F14C00DA
:100F400001F028FE04B070BDC0340008F10E0008A6
:100F5000190E00080B68302282F311880A7903EB1E
:100F6000820290614A79093243F822008A7912B1EB
:100F700003EB820398610223C0F8941403740020E9
:100F800080F311887047000038B5037F044613B121
:100F900090F85430ABB9201D01250221FFF734FF32
:100FA00004F1140025776FF0010100F06BFC84F868
:100FB000545004F14C006FF00101BDE8384000F0DE
:100FC00061BC38BD10B5012104460430FFF71CFF99
:100FD0000023237784F8543010BD000038B5044650
:100FE0000025143001F020FD04F14C00257701F0BC
:100FF000E9FD201D84F854500121FFF705FF20462C
:10100000BDE83840FFF752BF90F8442002F060027C
:10101000202A034615D190F84520212A4FF00000E0
:1010200002D81F2A03D87047222A07D07047064AE1
:101030009A630722DA63186401207047C3E90E003F
:10104000F9E70020704700BF1122002037B5D0F823
:1010500094341A681178042904461AD1017C0229B3
:1010600017D11979128901238B40134211D100F154
:101070004C05284601F064FE58B101A9284601F04C
:10108000ADFDD4F89444019B21790246206800F01C
:10109000B3F803B030BD000000EB8103F7B59E69E3
:1010A00004460D46F6B1302383F3118804EB85071F
:1010B000301D0821FFF7A8FEFB685B691B684C36F2
:1010C00013B1304601F098FD01A9304601F086FDCC
:1010D000024648B1019B2946204600F08DF80023C6
:1010E00083F3118803B0F0BDFB685A691268002AC7
:1010F000F5D01B8A013B1340F1D104F14402EAE729
:10110000093138B550F82140DCB1302383F3118820
:10111000D4F894241368527903EB8203DB689B694B
:101120005D6845B104216018FFF76EFE294604F1A1
:10113000140001F08FFC2046FFF7B8FE002383F374
:10114000118838BD7047000000F0FCBF0123037018
:101150000023C0E90133C36183620362C362436257
:101160000363704738B50446302383F311880025A4
:10117000C0E90355C0E90555416000F0F3FF0223C3
:10118000237085F31188284638BD000070B500EB48
:10119000810305465069DA600E46144618B11022E4
:1011A0000021FFF79BFDA06918B110220021FFF775
:1011B00095FD31462846BDE8704001F09DB800001D
:1011C000826802F0011282600022C0E9042282617A
:1011D00001F01AB9F0B400EB81044789E4680125F5
:1011E000A4698D403D43458123600023A260636074
:1011F000F0BC01F035B90000F0B400EB81040789C0
:10120000E468012564698D403D4305812360002326
:10121000A2606360F0BC01F0A9B9000070B50223C0
:10122000002504460370C0E90255C0E90455C564B1
:10123000856180F8345000F0FBFF63681B6823B1C0
:1012400029462046BDE87040184770BD0378052B3D
:1012500010B504460AD080F8503005230370436867
:101260001B680BB1042198470023A36010BD000048
:101270000178052906D190F85020436802701B6858
:1012800003B118477047000070B590F83430044639
:1012900013B1002380F8343004F14402204601F0F9
:1012A000D5F863689B68B3B994F8443013F06005CF
:1012B00035D00021204601F06BFB0021204601F0D3
:1012C0005DFB63681B6813B106212046984706231F
:1012D00084F8343070BD204698470028E4D0B4F834
:1012E0004A30E56B9D4284BFE3631D4694F9443068
:1012F000002B4FF0300380F20381002D00F0F280CC
:10130000092284F8342083F311880021D4E90E23C4
:101310002046FFF771FF002383F31188DAE794F882
:10132000452003F07F0343EA022340F20232934256
:1013300000F0C58021D8B3F5807F48D00DD8012BAF
:101340003FD0022B00F09380002BB2D104F14C026D
:10135000A2630222E2632364C1E7B3F5817F00F058
:101360009B80B3F5407FA4D194F84630012BA0D1E7
:10137000B4F84C3043F0020332E0B3F5006F4DD0C7
:1013800017D8B3F5A06F31D0A3F5C063012B90D867
:10139000636894F846205E6894F84710B4F84830C3
:1013A0002046B047002884D04368A3630368E36302
:1013B0001AE0B3F5106F36D040F6024293427FF444
:1013C00078AF5C4BA3630223E3630023C3E794F885
:1013D0004630012B7FF46DAFB4F84C3023F002039C
:1013E000C4E90E55A4F84C30256478E7B4F84430CD
:1013F000B3F5A06F0ED194F8463084F84E302046F5
:1014000000F06EFF63681B6813B101212046984706
:10141000032323700023C4E90E339CE704F14F0338
:10142000A3630123C3E72378042B10D1302383F374
:1014300011882046FFF7C4FE85F3118803216368F5
:1014400084F84F5021701B680BB12046984794F8E0
:101450004630002BDED084F84F30042323706368BD
:101460001B68002BD6D0022120469847D2E794F87B
:1014700048301D0603F00F0120460AD500F0D8FFC2
:10148000012804D002287FF414AF2B4B9AE72B4B92
:1014900098E700F0BFFFF3E794F84630002B7FF4A5
:1014A00008AF94F8483013F00F01B3D01A06204665
:1014B00002D501F081FAADE701F074FAAAE794F8D9
:1014C0004630002B7FF4F5AE94F8483013F00F014E
:1014D000A0D01B06204602D501F05AFA9AE701F087
:1014E0004DFA97E7142284F8342083F311882B46B1
:1014F0002A4629462046FFF76DFE85F31188E9E666
:101500005DB1152284F8342083F311880021D4E9D9
:101510000E232046FFF75EFEFDE60B2284F8342002
:1015200083F311882B462A4629462046FFF764FE9E
:10153000E3E700BFF0340008EC340008E8340008AA
:1015400038B590F834300446002B3ED0063BDAB272
:101550000F2A34D80F2B32D8DFE803F037313108A7
:10156000223231313131313131313737C56BB0F859
:101570004A309D4214D2C3681B8AB5FBF3F203FBC9
:1015800012556DB9302383F311882B462A4629461C
:10159000FFF732FE85F311880A2384F834300EE019
:1015A000142384F83430302383F3118800231A463F
:1015B00019462046FFF70EFE002383F3118838BD3D
:1015C000036C03B198470023E7E70021204601F0B0
:1015D000DFF90021204601F0D1F963681B6813B1DF
:1015E0000621204698470623D7E7000010B590F85B
:1015F0003430142B044629D017D8062B05D001D837
:101600001BB110BD093B022BFBD80021204601F085
:10161000BFF90021204601F0B1F963681B6813B1DE
:10162000062120469847062319E0152BE9D10B2304
:1016300080F83430302383F3118800231A4619468A
:10164000FFF7DAFD002383F31188DAE7C3689B69AB
:101650005B68002BD5D1036C03B19847002384F855
:101660003430CEE700230375826803691B689968EC
:101670009142FBD25A680360426010605860704724
:1016800000230375826803691B6899689142FBD83F
:101690005A680360426010605860704708B5084699
:1016A000302383F311880B7D032B05D0042B0DD041
:1016B0002BB983F3118808BD8B6900221A604FF0A3
:1016C000FF338361FFF7CEFF0023F2E7D1E9003259
:1016D00013605A60F3E70000FFF7C4BF054BD968F9
:1016E0000875186802681A60536001220275D86094
:1016F000FEF708BEB025002030B50C4BDD684B1C52
:1017000087B004460FD02B46094A684600F04EF9D0
:101710002046FFF7E3FF009B13B1684600F050F945
:10172000A86907B030BDFFF7D9FFF9E7B025002061
:101730009D160008044B1A68DB6890689B68984205
:1017400094BF002001207047B0250020084B10B541
:101750001C68D86822681A60536001222275DC6018
:10176000FFF78EFF01462046BDE81040FEF7CABDD8
:10177000B025002038B5074C07490848012300254B
:101780002370656001F014FB0223237085F3118838
:1017900038BD00BF08260020F4340008B025002022
:1017A00000F044B9034A516853685B1A9842FBD869
:1017B000704700BF001000E08B60022308618B823D
:1017C000084670478368A3F1840243F8142C026929
:1017D00043F8442C426943F8402C094A43F8242C2E
:1017E000C26843F8182C022203F80C2C002203F8DC
:1017F0000B2C044A43F8102CA3F12000704700BFC3
:101800001D030008B025002008B5FFF7DBFFBDE889
:101810000840FFF761BF0000024BDB6898610F20B2
:10182000FFF75CBFB0250020302383F31188FFF75A
:10183000F3BF000008B50146302383F31188082068
:10184000FFF75AFF002383F3118808BD064BDB68BE
:1018500039B1426818605A60136043600420FFF792
:101860004BBF4FF0FF307047B025002003460068A3
:10187000834205D002681A6053608161FFF72CBF74
:101880007047000038B504460D462068844200D1F8
:1018900038BD036823605C608561FFF71DFFF4E7D6
:1018A00010B503689C68A2420CD85C688A600B6023
:1018B0004C60216059609968891A99604FF0FF3334
:1018C000836010BD1B68121BECE700000A2938BFBB
:1018D0000A2170B504460D460A26601901F062FA25
:1018E00001F04EFA041BA54203D8751C2E4604468F
:1018F000F3E70A2E04D9BDE87040012001F098BA40
:1019000070BD0000F8B5144B1446D961826003F134
:10191000100242600A2C1A69026038BF0A24506023
:10192000186108190D4601F02FFA0A2701F028FA6C
:10193000431BA342064606D37C1C281901F032FA49
:1019400027463546F2E70A2F04D9BDE8F8400120C2
:1019500001F06EBAF8BD00BFB025002070B50D468D
:10196000064601F00DFA0F490B4653F8102F9A4224
:1019700006D12A4601463046BDE87040FFF7C2BF97
:10198000CB69C41A2C19936828BF2C46A34202D9EC
:101990002946FFF79BFF224631460348BDE87040C9
:1019A000FFF77EBFB0250020C025002010B4C0E99D
:1019B000032300235DF8044B4361FFF7CFBF000012
:1019C00010B5194C236998420DD0D0E900328168D6
:1019D00013605A609A680A449A60002303604FF0CB
:1019E000FF33A36110BD2346026843F8102F5360F4
:1019F0000022026022699A4203D1BDE8104001F042
:101A0000CBB9936881680B44936001F0B9F92269FE
:101A1000E1699268441AA242E4D91144BDE8104039
:101A2000091AFFF753BF00BFB02500202DE9F84386
:101A3000284E294F356901F0A3F9F469AA68011B02
:101A40008A423AD81444D5E90032F46113605A60EE
:101A500000232B603269BA42984601D101F09CF90B
:101A600088F31188D5E9033128469847302383F35A
:101A700011886B69002BDDD001F082F96A69A0EB57
:101A80000408424581460CD2022001F0D1F900221F
:101A90003369BB4208D149462846BDE8F843FFF701
:101AA00031BF2244121AF3E712EB08080A4838BF84
:101AB00042462946FFF7F4FEBBE73169B94207D039
:101AC0001444211AF061A960BDE8F843FFF7FEBE97
:101AD000BDE8F883B0250020C02500200020704715
:101AE000FEE70000704700004FF0FF307047000035
:101AF00002290CD0032904D00129074818BF00206F
:101B00007047032A05D8054800EBC2007047044817
:101B100070470020704700BFB03500081822002031
:101B20006435000870B59AB00546084601A9144608
:101B300000F0C0F801A8FFF7CFF8431C1BB25B0010
:101B4000C5E900340022237003236370C6B201ABE1
:101B500002341046D1B28E4204F1020401D81AB008
:101B600070BD13F8011B04F8021C04F8010C0132CB
:101B7000F0E7000008B5302383F311880348FFF72E
:101B800065FA002383F3118808BD00BFA028002058
:101B900090F8443003F01F02012A07D190F8452045
:101BA0000B2A03D10023C0E90E3315E003F06003D4
:101BB000202B08D1B0F848302BB990F84520212AC5
:101BC00003D81F2A04D8FFF71FBA222AEBD0FAE75E
:101BD000034A82630722C26303640120704700BF87
:101BE0003822002010B50446052916D8DFE801F098
:101BF00016150316161D302383F311880E4A012192
:101C0000FFF7C4FA20460D4A0221FFF7BFFA0C483D
:101C1000FFF7E4F9002383F3118810BD302383F329
:101C200011880748FFF7B0F9F4E7302383F31188F0
:101C30000348FFF7C7F9EDE73C3500081835000801
:101C4000A028002038B50B4C0B4D0A4A0B490A4816
:101C5000FFF768FF04F1CA0205F108000849FFF721
:101C600061FF04F5CA7205F110000649BDE838406D
:101C7000FFF758BF402600202022002049340008EA
:101C8000503400086034000870B5044608460D461C
:101C9000FFF722F8C6B22046013403780BB9184684
:101CA00070BD32462946FFF703F80028F3D1012022
:101CB000F6E70000F8B505460C46FFF70DF82B498E
:101CC00007462846FFF7E0FF294906462846FFF762
:101CD000DBFF06EB4606B60006EB0016F019C0B2B5
:101CE00063281DD929462046BDE8F84001F084BB91
:101CF000252E36D11D4907222846FEF7D9FFA0B967
:101D00001C4B224603F1100153F8040B42F8040B5C
:101D10008B42F9D119889B78118093700735133461
:101D20002E78002EE4D12670F8BD114908222846ED
:101D3000FEF7BEFFA8B9104B1048114EA21C19782F
:101D400009090232415C02F8041C13F8011B01F07E
:101D50000F01B342415C02F8031CF0D1183408357E
:101D6000DEE704F8016B0135DAE700BF69340008EB
:101D70006034000871340008107AFF1F85340008B1
:101D80001C7AFF1FBFF34F8F024AD368DB03FCD4DA
:101D9000704700BF003C024008B5094B1B7873B97F
:101DA000FFF7F0FF074B1A69002ABFBF064A5A60C7
:101DB00002F188325A601A6822F480621A6008BD03
:101DC000382D0020003C02402301674508B50B4B2D
:101DD0001B7893B9FFF7D6FF094B1A6942F000420E
:101DE0001A611A6842F480521A601A6822F480520A
:101DF0001A601A6842F480621A6008BD382D00200B
:101E0000003C02400B28F0B515D80C4C0C49237847
:101E100073B90C4D0E464FF00062013355F8047B48
:101E200046F8042BDBB20C2B3A44F6D10123237085
:101E300051F82000F0BD0020FCE700BF392D002044
:101E40003C2D0020CC350008014B53F82000704792
:101E5000CC3500080C2070470B2810B5044601D97A
:101E6000002010BDFFF7CEFF064B53F82430184476
:101E7000C21A0BB90120F4E712680132F0D1043B19
:101E8000F6E700BFCC3500080B2810B5044621D872
:101E9000FFF778FFFFF780FF0F4AF323D360C300FB
:101EA000DBB243F4007343F002031361136943F49C
:101EB00080331361FFF766FFFFF7A4FF074B53F86A
:101EC000241000F0D3F8FFF781FF2046BDE8104052
:101ED000FFF7C2BF002010BD003C0240CC35000817
:101EE000F8B5D507144641D48318B3F1016F3DD836
:101EF0002B4B1B68DA0739D52A4FFFF74DFFF32329
:101F0000FB60FFF73FFF40F20126032C15D824F0B9
:101F10000104244D0C44401A40F20117A1422B69E0
:101F200001EB000624D123F001032B61FFF74EFFE4
:101F30000120F8BD043C0430E7E78307E7D13B69A3
:101F400023F440733B613B6933433B6151F8045BCD
:101F50000560BFF34F8FFFF715FF03689D42E9D07F
:101F60003B6923F001033B61FFF730FF0020E0E70E
:101F700023F440732B612B693B432B610B88338027
:101F8000BFF34F8FFFF7FEFE368831F8023BB6B243
:101F9000B342C3D02B6923F001032B61E4E700BFF8
:101FA00000380240003C0240084908B50B7828B1CF
:101FB0001BB9FFF7F1FE01230B7008BD002BFCD00D
:101FC000BDE808400870FFF701BF00BF382D0020B2
:101FD00010B50244054BD2B2904200D110BD441C52
:101FE00053F8200041F8040BE0B2F5E75028004018
:101FF0000F4B30B51C6F240407D41C6F44F40074DD
:102000001C671C6F44F400441C670A4C236843F4AB
:10201000807323600244084BD2B2904200D130BD9D
:1020200051F8045B43F82050441CE0B2F5E700BFD0
:1020300000380240007000405028004007B50122DF
:1020400001A90020FFF7C4FF019803B05DF804FB6D
:1020500013B50446FFF7F2FFA04205D0012201A903
:1020600000200194FFF7C4FF02B010BD70470000CC
:10207000034B1A681AB9034AD2F874281A607047D9
:102080006C2D00200030024008B5FFF7F1FF024B35
:10209000D878C0F3401008BD6C2D002070470000B8
:1020A000FEE70000084A094B09498B4204D3094A5C
:1020B0000021934205D3704752F8040B43F8040BF8
:1020C000F3E743F8041BF4E768370008682E0020A4
:1020D000682E0020682E002070B5D0E915439E6858
:1020E00000224FF0FF3504EB42135101D3F80009F1
:1020F0000028BEBFD3F8000940F08040C3F80009B3
:10210000D3F8000B0028BEBFD3F8000B40F080408E
:10211000C3F8000B013263189642C3F80859C3F89C
:10212000085BE0D24FF00113C4F81C3870BD00000A
:10213000890141F02001016103699B06FCD4122052
:10214000FFF730BB08B50548FFF700F8034A4FF02A
:10215000A0435365024B936508BD00BF882D002046
:10216000FC35000870B50378012B054650D12A4B89
:10217000446D98421BD1294B5A6B42F080025A633E
:102180005A6D42F080025A655A6D5A6942F08002D7
:102190005A615A6922F080025A610E2143205B691C
:1021A00000F014FC1E4BE3601E4BC4F80038002303
:1021B000C4F8003EC02323606E6D4FF40413A36384
:1021C0003369002BFCDA012333610C20FFF7EAFAB4
:1021D0003369DB07FCD41220FFF7E4FA3369002BE4
:1021E000FCDA0026A6602846FFF776FF6B68C4F885
:1021F0001068DB68C4F81468C4F81C684BB90A4B53
:10220000A3614FF0FF336361A36843F00103A36050
:1022100070BD064BF4E700BF882D00200038024057
:102220004014004003002002003C30C0083C30C095
:10223000F8B5446D054600212046FFF779FFA96DEA
:1022400000234FF001128F68C4F834384FF0006655
:10225000C4F81C284FF0FF3004EB431201339F42B7
:10226000C2F80069C2F8006BC2F80809C2F8080B8E
:10227000F2D20B686A6DEB65636210231361166915
:1022800016F01006FBD11220FFF78CFAD4F80038B4
:1022900023F4FE63C4F80038A36943F4402343F0F9
:1022A0001003A3610923C4F81038C4F814380A4B8A
:1022B000EB604FF0C043C4F8103B084BC4F8003B40
:1022C000C4F81069C4F80039EB6D03F1100243F44F
:1022D0008013EA65A362F8BD08360008408000104C
:1022E000426D90F84E10D2F8003823F4FE6343EAB2
:1022F0000113C2F80038704700EB81032DE9F04765
:10230000DA68456D166806F00306731E804605EB15
:102310004110022B4FF000030C464FEA81094FEAAF
:10232000411AC0F8103B01F110014FF0010398BFB2
:10233000B60403FA01F391698EBF314E06F180565F
:1023400006F5004600293AD0508A04F158014901A7
:1023500030436850D5F81C180B43AA44C5F81C3804
:102360000023CAF8103953690127611EA7408BB3B7
:10237000138A928B9B08012A88BF5343D8F85C20AC
:10238000981842EA034201F1400305EB8303C8F8C1
:102390005C0021465A602846FFF7CAFE08EB090098
:1023A000C3681B8A43EA84534834640133432B5186
:1023B000D5F81C383B43C5F81C38BDE8F087D0F889
:1023C000001B21F40041C0F8001BD5F81C1821EABD
:1023D0000303C2E704F13F0305EB8303094A5A6094
:1023E00021462846FFF7A4FEDAF8003923F400431B
:1023F000CAF80039D5F81C3823EA0703DBE700BF29
:102400000080001000040002826D1268C265FFF7B0
:1024100063BE00005831436D49015B5813F400401E
:1024200004D013F4001F14BF0120022070470000E5
:102430004831436D49015B5813F4004004D013F454
:10244000001F14BF012002207047000000EB810034
:10245000C368196A0B6813604B68536070470000CB
:1024600000EB810330B5DD68AB691A68DA6019B931
:10247000402A84BF40221A606B8A5C1E1444B4FB5D
:10248000F3F46343426D033323F0030343EAC4438D
:10249000480102EB411143F0C043C1F8103B2B68E7
:1024A00003F00303012B0CD1D2F8083813F4807F1A
:1024B000D1F8003B14BF43F0805343F00053C1F800
:1024C000003B0244D2F8003B43F00443C2F8003B17
:1024D00030BD00002DE9F041234D6E6D06EB401339
:1024E0000446D3F8087BC3F8087B38070AD5D6F82A
:1024F0001438190706D505EB84032146DB68284606
:102500005B689847FA071FD5D6F81438DB071BD548
:1025100005EB8403D968CCB98B69488A5A68B2FB49
:10252000F0F600FB16228AB91868DA6890420DD2DC
:10253000121AC3E90024302383F311880A48214684
:10254000FFF78EFF84F31188BDE8F0816B890122CB
:10255000A24023EA02036B81CB68002BF4D0214612
:102560000148BDE8F0411847882D002000EB8103A9
:1025700070B5DD68426D6C692368E360480133BB68
:1025800013184FF40024C3F810492B6803F0030319
:10259000012B0DD1D2F80838141813F4807FD4F829
:1025A000003914BF43F0805343F00053C4F800399E
:1025B0001044D0F8003943F00443C0F80039D2F891
:1025C000340801238B400343C2F8343870BD19B975
:1025D000402B84BF402323602E8A741E1C44B4FB0E
:1025E000F6F443EAC443141843F00053C4F8103916
:1025F000CBE700002DE9F8433B4D6E6D06EB401331
:102600000446D3F80889C3F8088918F0010F4FEA87
:1026100040171AD0D6F81038DB0716D505EB800323
:10262000D9684B691868DA68904230D2121A4FF0B4
:1026300000091A60C3F80490302383F311882146FF
:102640002846FFF793FF89F3118818F0800F1CD0FC
:10265000D6F834380126A640334216D005EB840361
:102660006D6DD3F80CC0DCF814200134E4B2D2F85C
:1026700000E005EB04342F445168714514D3D5F8BC
:10268000343823EA0603C5F83438BDE8F8832B89CB
:102690000122A24023EA02032B818B68002BD4D0B5
:1026A000214628469847D0E7BCF81000AEEB01035E
:1026B000834228BF0346D7F8180980B2B3EB800FD6
:1026C000E3D89068A0F1040959F8048FC4F8008099
:1026D000A0EB09089844B8F1040FF5D81844194440
:1026E00090605160C8E700BF882D00202DE9F047B9
:1026F000A14C656D6E69AB691E4016F480576E6122
:1027000006D02046FEF78AFDBDE8F04700F03CBC4D
:10271000002E12DAD5F8003E974899071EBFD5F86B
:10272000003E23F00303C5F8003ED5F8043823F03B
:102730000103C5F80438FEF79BFD320505D58E4828
:10274000FFF7CAFC8C48FEF781FDB3040CD5D5F821
:10275000083813F0060FEB6823F470530CBF43F4F2
:10276000105343F4A053EB6030071BD56368DB685C
:102770001BB9AB6923F00803AB612378052B0CD19F
:10278000D5F8003E7C4899071EBFD5F8003E23F0DF
:102790000303C5F8003EFEF76BFD6368DB680BB111
:1027A00075489847F2025CD4B3020CD5D4F8549023
:1027B0004FF000084FF0010AA36D9B685FFA88F1A3
:1027C0008B4280F08580F0061AD5D4F854C0DCF82E
:1027D0002020C2F30A1002F00F0302F4F012B2F547
:1027E000802F00F09F80B2F5402F09D104EB8303C6
:1027F0000022DB681B6A0CF5805C904240F085800B
:102800003003D5F8184813D5E10302D50020FFF7AF
:1028100061FEA20302D50120FFF75CFE630302D52F
:102820000220FFF757FE270302D50320FFF752FED1
:1028300075037FF569AFE00702D50020FFF7DAFEE8
:10284000A10702D50120FFF7D5FE620702D50220BD
:10285000FFF7D0FE23077FF557AF0320FFF7CAFE2F
:1028600052E7D4F854A04FF00009A36D9B685FFABB
:1028700089F8434598D30AEB4813D3F8002902F4AA
:102880004022B2F5802F20D1D3F80029002A1CDA8B
:10289000D3F8002942F09042C3F80029D3F8002968
:1028A000002AFBDB606D4146FFF742FC23890122D1
:1028B00002FA08F223EA0203238104EB8803DB68AF
:1028C0009B6813B12C484146984709F10109CCE7B0
:1028D00009EB4112D2F8003B03F44023B3F5802FFB
:1028E00010D1D2F8003B002B0CDA63890AFA01F20E
:1028F00023EA0203638104EB8103DB68DB680BB12D
:102900001D48984708F1010856E7910708BFDCF811
:102910000070072A98BF03F8017B02F1010298BFFB
:102920003F0A6AE7023304EB83020CF5805C5268CD
:10293000D2F818E0DEF80820DEE9001EA1EB0E0E4A
:10294000002188420AD104EB830463689B699A687A
:1029500002449A605A6802445A6051E711F0030F2A
:1029600008BFDCF800708E4588BF02F8017B01F1DA
:10297000010188BF3F0AE4E7882D0020436D03EB87
:102980004111D1F8003B43F40013C1F8003B7047FC
:10299000436D03EB4111D1F8003943F40013C1F842
:1029A00000397047436D03EB4111D1F8003B23F42C
:1029B0000013C1F8003B7047436D03EB4111D1F8A0
:1029C000003923F40013C1F80039704700F1604367
:1029D00003F561430901C9B283F80013012200F035
:1029E0001F039A4043099B0003F1604303F56143D1
:1029F000C3F880211A60704730B5039C017204331C
:102A000004FB0325C0E90653049B03630021059BD7
:102A1000C160C0E90000C0E90422C0E90842C0E981
:102A20000A11436330BD0000416A0022C0E904116D
:102A3000C0E90A22C2606FF00101FEF723BF000067
:102A4000D0E90432934201D1C2680AB9181D704717
:102A50000020704703691960C2680132C260C26910
:102A6000134482690361934224BF436A03610021D6
:102A7000FEF7FCBE38B504460D46E3683BB162691B
:102A8000131D1268A3621344E362002007E0237A57
:102A900033B929462046FEF7D9FE0028EDDA38BDC5
:102AA0006FF00100FBE70000C368C269013BC3602F
:102AB0004369134482694361934224BF436A43617B
:102AC00000238362036B03B11847704770B530234E
:102AD000044683F31188866A3EB9FFF7CBFF0546AB
:102AE00018B186F31188284670BDA36AE26A13F80C
:102AF000015BA362934202D32046FFF7D5FF002378
:102B000083F31188EFE700002DE9F84F04460F46E4
:102B100091469A464FF0300888F311880026B34654
:102B2000A56A4DB951462046FFF7A4FF20B185F3B1
:102B300011883046BDE8F88FD4E90A15A9EB0603E1
:102B40006D1A9D4228BF1D46402D1AD93B4601F102
:102B5000400251F8040B43F8040B9142F9D1A36AE7
:102B6000403740334036E26AA3629A4202D8204698
:102B7000FFF79AFF8BF311884E45DAD288F311885C
:102B8000CEE738462A46FEF789F8A36A2F442B443D
:102B90002E44E8E710B5029C0172043303FB0421C4
:102BA000C0E906130023C0E90A33039B0363049BB7
:102BB000C460C0E90000C0E90422C0E908424363E0
:102BC00010BD0000026AC260426AC0E9042200220D
:102BD000C0E90A226FF00101FEF754BE0346D0E9B6
:102BE0000420824201D1DB681BB950F8043B0B6022
:102BF000704700231846FAE7C368C2690133C3600F
:102C00004369134482694361934224BF436A436129
:102C10000021FEF72BBE000038B504460D46E368E0
:102C20003BB123691A1DA262E2691344E3620020EA
:102C300007E0237A33B929462046FEF707FE00282D
:102C4000EDDA38BD6FF00100FBE7000003691960A1
:102C5000C268013AC260C269134482690361934247
:102C600024BF436A036100238362036B03B11847E7
:102C70007047000070B530230D460446114683F3BB
:102C80001188866A2EB9FFF7C7FF10B186F3118845
:102C900070BDA36A1D70A36AE26A01339342A36206
:102CA00004D3E16920460439FFF7D0FF002080F308
:102CB0001188EDE72DE9F84F05460C4691469A46F6
:102CC0004FF0300888F311880027BB46AE6A4EB932
:102CD00051462846FFF7A0FF20B186F311883846F9
:102CE000BDE8F88FD5E90A06A9EB0703361A9E421C
:102CF00028BF1E46402E1AD904F1400354F8042B75
:102D000040F8042B9C42F9D1AB6A40374033EA6A61
:102D1000AB629A4204D8E96928460439FFF796FF66
:102D20008BF311884F45DAD288F31188CEE721461C
:102D30003246FDF7B3FFAB6A344433443744E6E729
:102D4000D0E904218A42034616D1C068A8B1986A26
:102D500098B10438801A10D01060D9680139D96050
:102D6000D9690A4499691A618A4224BF5A6A1A6168
:102D700000229A62012070470020704700F02EB9AF
:102D80004FF08043586A70474FF0804300225863E9
:102D90001A610222DA6070474FF080430022DA6045
:102DA000704700004FF0804358637047FEE7000013
:102DB00070B51B4B002586B00446856201630E4644
:102DC000586000F0BDF804F11003C4E904334FF07B
:102DD000FF33C4E90635C4E90044A560E562FFF7A6
:102DE000CFFF2B460246C4E9082304F134010D4A03
:102DF000256580232046FEF7DFFC0123E0600A4AB8
:102E00000375009272680192B268CDE90223074B04
:102E10006846CDE90435FEF7F7FC06B070BD00BF8B
:102E200008260020963400089B340008AD2D0008C9
:102E3000024AD36A0343D362704700BFB025002023
:102E40004B6843608B688360CB68C3600B694361E8
:102E50004B6903628B6943620B6803607047000033
:102E600008B5254B25481A6940F2FF110A431A613B
:102E70001A696FF308021A611A691A6B0A431A6316
:102E80001A6D0A431E491A651B6D0A46FFF7D8FFE3
:102E90001C3100F58060FFF7D3FF02F1380100F527
:102EA0008060FFF7CDFF02F1540100F58060FFF76D
:102EB000C7FF02F1700100F58060FFF7C1FF02F16A
:102EC0008C0100F58060FFF7BBFF02F1A80100F55F
:102ED0008060FFF7B5FF02F1C40100F58060FFF7E5
:102EE000AFFF02F1E00100F58060FFF7A9FFBDE848
:102EF000084000F0EFB800BF003802400000024078
:102F00002C36000808B500F059FAFEF733FCFFF73D
:102F1000AFF8BDE80840FEF795BE0000704700001E
:102F2000EFF3098305494A6B22F001024A636833D3
:102F300083F30988002383F31188704700EF00E0D2
:102F4000302080F3118862B60C4B0D4AD96821F409
:102F5000E0610904090C0A43DA60D3F8FC2009494E
:102F600042F08072C3F8FC200A6842F001020A6055
:102F70002022DA7783F82200704700BF00ED00E0DE
:102F80000003FA05001000E010B5302383F3118828
:102F90000E4B5B6813F4006314D0F1EE103AEFF3BC
:102FA0000984683C4FF08073E361094BDB6B236657
:102FB00084F30988FEF7BEFB10B1064BA36110BD78
:102FC000054BFBE783F31188F9E700BF00ED00E054
:102FD00000EF00E02F030008320300080F4B1A6CCB
:102FE00042F001021A641A6E42F001021A660C4A9B
:102FF0001B6E936843F0010393604FF080435322AC
:103000009A624FF0FF32DA6200229A615A63DA6004
:103010005A6001225A611A60704700BF00380240AE
:10302000002004E04FF0804208B51169D3680B40DE
:10303000D9B2C9439B07116107D5302383F31188A7
:10304000FEF7AEFB002383F3118808BD1F4B1A69FE
:103050006FEAC2526FEAD2521A611A69C2F30802C9
:103060001A614FF0FF301A695A69586100215A6994
:1030700059615A691A6A62F080521A621A6A02F039
:1030800080521A621A6A5A6A58625A6A59625A6AAD
:103090001A6C42F080521A641A6E42F080521A661C
:1030A0001A6E0B4A106840F480701060186F00F4BC
:1030B0004070B0F5007F1EBF4FF48030186719676D
:1030C000536823F40073536000F054B90038024091
:1030D00000700040334B4FF080521A64324A4FF474
:1030E000404111601A6842F001021A601A689107A3
:1030F000FCD59A6822F003029A602A4B9A6812F073
:103100000C02FBD1196801F0F90119609A601A6884
:1031100042F480321A601A689203FCD55A6F42F06A
:1031200001025A671F4B5A6F9007FCD51F4A5A601D
:103130001A6842F080721A601B4A53685904FCD521
:10314000184B1A689201FCD5194A9A60194B1A68F3
:10315000194B9A42194B21D1194A1168194A9142C7
:103160001CD140F205121A60144A136803F00F03D1
:10317000052BFAD10B4B9A6842F002029A609A68CA
:1031800002F00C02082AFAD15A6C42F480425A64C6
:103190005A6E42F480425A665B6E704740F2057286
:1031A000E1E700BF003802400070004008544007CB
:1031B00000948838002004E011640020003C0240A4
:1031C00000ED00E041C20F41074A08B5536903F022
:1031D0000103536123B1054A13680BB15068984746
:1031E000BDE80840FFF7D0BE003C0140E82D0020BC
:1031F000074A08B5536903F00203536123B1054A36
:1032000093680BB1D0689847BDE80840FFF7BCBE93
:10321000003C0140E82D0020074A08B5536903F03F
:103220000403536123B1054A13690BB150699847F0
:10323000BDE80840FFF7A8BE003C0140E82D002093
:10324000074A08B5536903F00803536123B1054ADF
:1032500093690BB1D0699847BDE80840FFF794BE69
:10326000003C0140E82D0020074A08B5536903F0EF
:103270001003536123B1054A136A0BB1506A984792
:10328000BDE80840FFF780BE003C0140E82D00206B
:10329000164B10B55C6904F478725A61A30604D524
:1032A000134A936A0BB1D06A9847600604D5104A56
:1032B000136B0BB1506B9847210604D50C4A936BE6
:1032C0000BB1D06B9847E20504D5094A136C0BB1DA
:1032D000506C9847A30504D5054A936C0BB1D06C8C
:1032E0009847BDE81040FFF74FBE00BF003C0140CB
:1032F000E82D0020194B10B55C6904F47C425A613A
:10330000620504D5164A136D0BB1506D984723051D
:1033100004D5134A936D0BB1D06D9847E00404D5E2
:103320000F4A136E0BB1506E9847A10404D50C4A96
:10333000936E0BB1D06E9847620404D5084A136FA0
:103340000BB1506F9847230404D5054A936F0BB116
:10335000D06F9847BDE81040FFF716BE003C014013
:10336000E82D002008B5FFF75DFEBDE80840FFF737
:103370000BBE0000062108B50846FFF727FB062113
:103380000720FFF723FB06210820FFF71FFB06217C
:103390000920FFF71BFB06210A20FFF717FB062178
:1033A0001720FFF713FB06212820FFF70FFBBDE8CE
:1033B000084007211C20FFF709BB000008B5FFF7F4
:1033C00045FE00F00BF8FDF7BFFEFDF795FDFFF79A
:1033D000A5FDBDE80840FFF7D1BC00000023054A69
:1033E00019460133102BC2E9001102F10802F8D18D
:1033F000704700BFE82D0020034611F8012B03F8A9
:10340000012B002AF9D17047012033000010410040
:1034100001105A00031059000710310053544D3366
:1034200032463F3F3F0053544D33324634307800EC
:1034300053544D3332463432780053544D33324670
:103440003434365858006330004A48454D435500DF
:1034500047463330463430352D49434D2D424C00DC
:103460002553455249414C250025424F41524425A0
:10347000004A48454D43555F474633304634303562
:103480002D49434D003031323334353637383941E8
:103490004243444546006D61696E0069646C650095
:1034A000000000001C34000813040000263400084B
:1034B0001904000030340008210400003A340008E8
:1034C00000000000750E0008610E00089D0E000847
:1034D000890E0008950E0008810E00086D0E000888
:1034E000590E0008A90E00080100000000000000AD
:1034F0000000000046340008A0230020B025002072
:10350000882D002001010200E51B0008F11A0008C7
:10351000911B0008751B000803000000000000005C
:1035200045110008000000001000000010260020D7
:103530000000000001000000000000000200000088
:103540000000000099100008011100084000400030
:10355000302600202026002002000000000000008D
:1035600004030904430000006C350008090243000D
:10357000020100C03209040000010202010005241A
:1035800000100105240100010424020205240600A4
:1035900001070582030800FF09040100020A000078
:1035A00000070501024000000705810240000000FD
:1035B00012000000B835000812011001020000409E
:1035C00009124157000201020301000000400000FF
:1035D000004000000040000000400000000001002A
:1035E00000000200000002000000020000000200D3
:1035F0000000020000000200000002008000000045
:1036000040010000030000000000000089120008D3
:1036100041150008ED15000840004000782D0020FD
:10362000782D002001000000702D00200000842A69
:1036300000000000AAAAAAAA00000024FFFD0000C2
:103640000000000000A00A0040000011000000007F
:10365000AAAAAAAA40000011FFFF00000000000073
:10366000000000000000005400000000AAAAAAAA5E
:1036700000000008FF1F0000000000000000000024
:103680000000000000000000AAAAAAAA0000000092
:10369000FFFF00000000000000000000000000002C
:1036A00000000000AAAAAAAA00000000FFFF000074
:1036B000000000000000000000000000000000000A
:1036C000AAAAAAAA00000000FFFF00000000000054
:1036D000000000000000000000000000AAAAAAAA42
:1036E00000000000FFFF00000000000000000000DC
:1036F00000000000000000000A00000000000000C0
:1037000003000000000000000000000000000000B6
:1037100000000000000000000000000000000000A9
:10372000000000000000000085050000000000000F
:1037300000400F0000000000FF009600000000089D
:1037400004000000603500080000000000000000D8
:103750000000000000000000000000000000000069
:083760000096000000000800C3
:00000001FF
